:020000040800F2
:1000000000500020F10D0008090C00080F0C00083A
:10001000150C00081B0C0008210C00080000000053
:10002000000000000000000000000000270C000895
:10003000330C0008000000003F0C00084B0C0008C7
:10004000390E0008390E0008390E0008390E000874
:10005000390E0008390E0008390E0008390E000864
:10006000390E0008390E0008390E0008390E000854
:10007000390E0008390E0008390E0008390E000844
:10008000390E0008390E0008390E0008390E000834
:10009000590C00086D0C0008390E0008390E0008D4
:1000A000390E0008390E0008390E0008390E000814
:1000B000390E0008390E0008390E0008390E000804
:1000C000390E0008390E0008390E0008390E0008F4
:1000D000390E0008390E0008390E0008390E0008E4
:1000E000390E0008390E0008390E00080000000023
:1000F0000000000000000000000000000000000000
:0C01000000000000000000005FF808F1A3
:10010C0010B5054C237833B9044B13B10448AFF345
:10011C0000800123237010BD680000200000000047
:10012C005442000808B5034B1BB103490348AFF315
:10013C00008008BD000000006C0000205442000844
:10014C0080B582B000AF78600821164801F01AFE25
:10015C001021144801F016FE2021124801F012FE65
:10016C00114B124A0021786801F027F80346002B46
:10017C000DD008210B4801F005FE1021094801F0B3
:10018C0001FE2021074801F0FDFD00F01FFB074B8D
:10019C001B68A22B02D1064B01221A7000BF083734
:1001AC00BD4680BD000C014088000020900000205E
:1001BC008400002080B582B000AF7860082116481A
:1001CC0001F0E0FD1021144801F0DCFD2021124863
:1001DC0001F0D8FD114B124A0121786800F0EDFFB7
:1001EC000346002B0DD008210B4801F0CBFD10214C
:1001FC00094801F0C7FD2021074801F0C3FD00F0BC
:10020C00E5FA074B1B68A22B02D1064B01221A7090
:10021C0000BF0837BD4680BD000C0140880000209F
:10022C00900000208400002080B500AF00F000FE9C
:10023C0000F054F800F056FA00F0CAF800F0F6F8A6
:10024C0000F02AF900F07CF900F0C8F900F020FA6F
:10025C0000F08AF81B4802F0D7FB1B4800F069FF3E
:10026C001A4803F063FC1A4B1A4A0021164800F096
:10027C00A4FF0346002B0BD10821174801F082FD87
:10028C001021154801F07EFD2021134801F07AFD64
:10029C000F4B104A01210C4800F08FFF0346002B36
:1002AC000BD108210C4801F06DFD10210A4801F01A
:1002BC0069FD2021084801F065FD322000F01AFE8E
:1002CC00D1E700BFC8010020AC0000206C42000840
:1002DC008800002090000020000C014080B590B0F8
:1002EC0000AF07F1180328220021184603F0FEFC8A
:1002FC003B1D00221A605A609A60DA601A61012371
:10030C00BB614FF48033FB6100233B620123BB6272
:10031C0002237B634FF48033BB634FF4E013FB6326
:10032C0007F11803184601F08BFE0346002B01D091
:10033C0000F04CFA0F237B600223BB600023FB60B0
:10034C004FF480633B6100237B613B1D0221184607
:10035C0002F0F8F80346002B01D000F037FA00BF8A
:10036C004037BD4680BD000080B500AF164B174A24
:10037C001A60154B10225A60134B00229A60124BD4
:10038C000022DA60104B00221A610F4B00225A61D6
:10039C000D4B00221A760C4B00225A760A4B002287
:1003AC009A76094B0022DA76074B00221A77064B15
:1003BC0000225A77044800F0C1FD0346002B01D0FF
:1003CC0000F004FA00BF80BDAC00002000640040C7
:1003DC0080B500AF124B134A1A60114B124A5A6087
:1003EC000F4B00229A600E4B0022DA600C4B4FF43C
:1003FC0080421A610A4B00225A61094B00229A6111
:10040C00074B0022DA61064B00221A62044801F005
:10041C00D3FC0346002B01D000F0D8F900BF80BDFF
:10042C00D400002000580040A086010080B500AF29
:10043C00174B184A1A60164B4FF482725A60144BC1
:10044C0000229A60124B0022DA60114B00221A61D2
:10045C000F4B00225A610E4B4FF400729A610C4BF9
:10046C000822DA610A4B00221A62094B00225A62F6
:10047C00074B00229A62064B0A22DA62044802F009
:10048C00EFF90346002B01D000F0A0F900BF80BDAE
:10049C00280100200030014080B58CB000AF07F17E
:1004AC000C0324220021184603F020FC3B1D0022E3
:1004BC001A605A60214B4FF080421A601F4B002289
:1004CC005A601E4B00229A601C4B4FF6FF72DA608A
:1004DC001A4B00221A61194B00229A610123FB600E
:1004EC0000233B6101237B610023BB610023FB6183
:1004FC0000233B6201237B620023BB620023FB626F
:10050C0007F10C0319460D4802F01FFB0346002BA4
:10051C0001D000F05BF900237B600023BB603B1D26
:10052C001946064802F0BEFF0346002B01D000F02E
:10053C004DF900BF3037BD4680BD00BF80010020A3
:10054C0080B586B000AF07F1080300221A605A602C
:10055C009A60DA603B4600221A605A601D4B1E4AB4
:10056C001A601C4B48F69F425A601A4B00229A6044
:10057C00184BC722DA60174B00221A61154B002268
:10058C009A61144802F0F0F90346002B01D000F0F8
:10059C001DF94FF48053BB6007F1080319460D4851
:1005AC0002F038FC0346002B01D000F00FF90023B9
:1005BC003B6000237B603B461946064802F072FF05
:1005CC000346002B01D000F001F900BF1837BD46DF
:1005DC0080BD00BFC80100200004004080B58AB077
:1005EC0000AF07F1200300221A605A603B1D002265
:1005FC001A605A609A60DA601A615A619A61224BE9
:10060C00224A1A60204B00225A601F4B00229A602B
:10061C001D4B4FF6FF72DA601B4B00221A611A4B0E
:10062C0000229A61184802F041FA0346002B01D0CF
:10063C0000F0CCF800233B6200237B6207F120031F
:10064C001946114802F02EFF0346002B01D000F092
:10065C00BDF860237B600023BB600023FB6000239C
:10066C007B613B1D00221946074802F011FB034633
:10067C00002B01D000F0AAF8034800F041FA00BFAB
:10068C002837BD4680BD00BF100200200008004086
:10069C0080B500AF114B124A1A60104B4FF4E13287
:1006AC005A600E4B00229A600C4B0022DA600B4B06
:1006BC0000221A61094B0C225A61084B00229A61E4
:1006CC00064B0022DA61054802F04AFF0346002B74
:1006DC0001D000F07BF800BF80BD00BF58020020A5
:1006EC000038014080B588B000AF07F1100300223C
:1006FC001A605A609A60DA60314B9B69304A43F059
:10070C00200393612E4B9B6903F02003FB60FB6875
:10071C002B4B9B692A4A43F004039361284B9B693A
:10072C0003F00403BB60BB68254B9B69244A43F070
:10073C0008039361224B9B6903F008037B607B6881
:10074C0000224FF488711F4801F004FB00224FF483
:10075C0040411D4801F0FEFA012238211A4801F0EF
:10076C00F9FA4FF488733B6101237B610023BB6171
:10077C000223FB6107F110031946124801F066F9D8
:10078C0003233B6100237B610023BB6107F1100352
:10079C0019460D4801F05AF94CF238033B6101231C
:1007AC007B610023BB610223FB6107F11003194637
:1007BC00054801F04BF900BF2037BD4680BD00BF96
:1007CC000010024000080140000C014080B400AF52
:1007DC0072B600BFFEE7000080B483B000AF0E4BD2
:1007EC009B690D4A43F0010393610B4B9B6903F02A
:1007FC0001037B607B68084BDB69074A43F080533D
:10080C00D361054BDB6903F080533B603B6800BF51
:10081C000C37BD4680BC70470010024080B58AB0D2
:10082C0000AF786007F1140300221A605A609A60D6
:10083C00DA607B681B682D4A934253D12C4BDB69E1
:10084C002B4A43F00073D361294BDB6903F000732F
:10085C003B613B69264B9B69254A43F00803936136
:10086C00234B9B6903F00803FB60FB684FF4807318
:10087C007B610023BB610023FB6107F11403194664
:10088C001C4801F0E3F84FF400737B610223BB6159
:10089C0003233B6207F114031946164801F0D6F8FE
:1008AC00154B5B687B627B6A23F4C0437B627B6A7B
:1008BC0043F0E0637B627B6A43F480437B620E4AC5
:1008CC007B6A536000220021142001F088F8142068
:1008DC0001F0A1F800220021152001F080F815206C
:1008EC0001F099F800BF2837BD4680BD0064004078
:1008FC0000100240000C01400000014080B588B09F
:10090C0000AF786007F1100300221A605A609A60F9
:10091C00DA607B681B68164A934224D1154B9B699D
:10092C00144A43F008039361124B9B6903F00803CC
:10093C00FB60FB684FF440633B6112237B61032334
:10094C00FB6107F1100319460B4801F07FF8094BC6
:10095C00DB69084A43F48003D361064BDB6903F47B
:10096C008003BB60BB6800BF2037BD4680BD00BFA5
:10097C000058004000100240000C014080B588B0C7
:10098C0000AF786007F1100300221A605A609A6079
:10099C00DA607B681B681B4A93422FD11A4B9B6908
:1009AC00194A43F480539361174B9B6903F48053AA
:1009BC00FB60FB68144B9B69134A43F0040393617F
:1009CC00114B9B6903F00403BB60BB68A0233B6124
:1009DC0002237B610323FB6107F1100319460B48CB
:1009EC0001F034F840233B6100237B610023BB61A1
:1009FC0007F110031946054801F028F800BF20370D
:100A0C00BD4680BD0030014000100240000801408E
:100A1C0080B588B000AF786007F1100300221A602F
:100A2C005A609A60DA607B681B68B3F1804F23D1FF
:100A3C00134BDB69124A43F00103D361104BDB69A2
:100A4C0003F00103FB60FB680D4B9B690C4A43F000
:100A5C00040393610A4B9B6903F00403BB60BB68FE
:100A6C0003233B6100237B610023BB6107F110036F
:100A7C001946044800F0EAFF00BF2037BD4680BD90
:100A8C00001002400008014080B485B000AF7860CF
:100A9C007B681B68094A93420BD1094BDB69084AF6
:100AAC0043F00203D361064BDB6903F00203FB60E6
:100ABC00FB6800BF1437BD4680BC70470004004083
:100ACC000010024080B485B000AF78607B681B6872
:100ADC00094A93420BD1094BDB69084A43F00403E2
:100AEC00D361064BDB6903F00403FB60FB6800BFBA
:100AFC001437BD4680BC704700080040001002400F
:100B0C0080B588B000AF786007F1100300221A603E
:100B1C005A609A60DA607B681B680F4A934217D15F
:100B2C000E4B9B690D4A43F0080393610B4B9B6979
:100B3C0003F00803FB60FB6840233B6102237B61ED
:100B4C000223FB6107F110031946054800F07EFFF4
:100B5C0000BF2037BD4680BD000800400010024099
:100B6C00000C014080B588B000AF786007F110032D
:100B7C0000221A605A609A60DA607B681B681C4A13
:100B8C00934231D11B4B9B691A4A43F480439361C6
:100B9C00184B9B6903F48043FB60FB68154B9B6906
:100BAC00144A43F004039361124B9B6903F0040352
:100BBC00BB60BB684FF400733B6102237B61032372
:100BCC00FB6107F1100319460B4800F03FFF4FF48F
:100BDC0080633B6100237B610023BB6107F1100341
:100BEC001946054800F032FF00BF2037BD4680BDD6
:100BFC0000380140001002400008014080B400AFF2
:100C0C00FEE780B400AFFEE780B400AFFEE780B42F
:100C1C0000AFFEE780B400AFFEE780B400AF00BFCA
:100C2C00BD4680BC704780B400AF00BFBD4680BCE1
:100C3C00704780B400AF00BFBD4680BC704780B524
:100C4C0000AF00F03BF900BF80BD000080B500AFE5
:100C5C00024800F0D3FB00BF80BD00BFAC000020F9
:100C6C0080B500AF024800F0C9FB00BF80BD00BFDB
:100C7C00AC00002080B586B000AFF860B9607A6037
:100C8C0000237B610AE0AFF300800146BB685A1C6D
:100C9C00BA60CAB21A707B6901337B617A697B686E
:100CAC009A42F0DB7B6818461837BD4680BD80B58C
:100CBC0086B000AFF860B9607A6000237B6109E010
:100CCC00BB685A1CBA601B78184600F079F87B692F
:100CDC0001337B617A697B689A42F1DB7B68184649
:100CEC001837BD4680BD80B483B000AF78604FF03C
:100CFC00FF3318460C37BD4680BC704780B483B0B8
:100D0C0000AF786039603B684FF400525A600023A2
:100D1C0018460C37BD4680BC704780B483B000AF1A
:100D2C007860012318460C37BD4680BC704780B4F0
:100D3C0085B000AFF860B9607A60002318461437AC
:100D4C00BD4680BC7047000080B586B000AF7860AF
:100D5C00144A154BD31A7B617B693B61134B1B689F
:100D6C00002B02D1114B124A1A60104B1A687B6887
:100D7C0013443A699A4207D203F006F803460C2250
:100D8C001A604FF0FF3309E0084B1B68FB60074B00
:100D9C001A687B681344054A1360FB6818461837B9
:100DAC00BD4680BD0050002000040000A0020020C1
:100DBC00F803002080B400AF00BFBD4680BC704774
:100DCC0080B582B000AF7860391D4FF0FF3301223F
:100DDC00034802F015FC7B6818460837BD4680BDF9
:100DEC0058020020FFF7E6FF0B480C490C4A002381
:100DFC0002E0D458C4500433C4188C42F9D3094AC5
:100E0C00094C002301E013600432A242FBD302F030
:100E1C00C1FFFFF709FA70470000002068000020AE
:100E2C00AC42000868000020F4030020FEE700003C
:100E3C0080B500AF084B1B68074A43F010031360E2
:100E4C00032000F0C1FD0F2000F008F8FFF7C4FCF0
:100E5C000023184680BD00BF0020024080B582B040
:100E6C0000AF7860124B1A68124B1B7819464FF47E
:100E7C007A73B3FBF1F3B2FBF3F3184600F0D9FD30
:100E8C000346002B01D001230EE07B680F2B0AD800
:100E9C00002279684FF0FF3000F0A1FD064A7B6814
:100EAC001360002300E0012318460837BD4680BDBF
:100EBC0000000020080000200400002080B400AFD7
:100ECC00054B1B781A46054B1B681344034A1360E9
:100EDC0000BFBD4680BC704708000020A402002063
:100EEC0080B400AF024B1B681846BD4680BC7047EF
:100EFC00A402002080B584B000AF7860FFF7F0FF4B
:100F0C00B8607B68FB60FB68B3F1FF3F05D00A4B10
:100F1C001B781A46FB681344FB6000BFFFF7E0FF29
:100F2C000246BB68D31AFA689A42F7D800BF00BFD2
:100F3C001037BD4680BD00BF0800002080B584B0CE
:100F4C0000AF78607B68002B01D10123EDE07B685A
:100F5C0093F82030DBB2002B02D17868FFF75EFCEF
:100F6C007B681B681A687B681B6842F001021A6078
:100F7C00FFF7B6FFF86012E0FFF7B2FF0246FB681E
:100F8C00D31A0A2B0BD97B685B6A43F400327B685B
:100F9C005A627B68052283F820200123C5E07B6818
:100FAC001B685B6803F00103002BE5D07B681B68B2
:100FBC001A687B681B6822F002021A60FFF790FF28
:100FCC00F86012E0FFF78CFF0246FB68D31A0A2B7D
:100FDC000BD97B685B6A43F400327B685A627B688E
:100FEC00052283F8202001239FE07B681B685B6847
:100FFC0003F00203002BE5D17B681B7E012B08D18B
:10100C007B681B681A687B681B6842F080021A6058
:10101C0007E07B681B681A687B681B6822F08002FB
:10102C001A607B685B7E012B08D17B681B681A6891
:10103C007B681B6842F040021A6007E07B681B6803
:10104C001A687B681B6822F040021A607B689B7EE2
:10105C00012B08D17B681B681A687B681B6842F0FF
:10106C0020021A6007E07B681B681A687B681B68A3
:10107C0022F020021A607B68DB7E012B08D17B6892
:10108C001B681A687B681B6822F010021A6007E064
:10109C007B681B681A687B681B6842F010021A6038
:1010AC007B681B7F012B08D17B681B681A687B68E7
:1010BC001B6842F008021A6007E07B681B681A681C
:1010CC007B681B6822F008021A607B685B7F012B2F
:1010DC0008D17B681B681A687B681B6842F00402A5
:1010EC001A6007E07B681B681A687B681B6822F033
:1010FC0004021A607B689A687B68DB681A437B6819
:10110C001B691A437B685B6942EA03017B685B6875
:10111C005A1E7B681B680A43DA617B6800225A629C
:10112C007B68012283F82020002318461037BD4627
:10113C0080BD80B584B000AF78607B6893F82030B8
:10114C00DBB2012B2ED17B68022283F820207B6836
:10115C001B681A687B681B6822F001021A60FFF793
:10116C00BFFEF86012E0FFF7BBFE0246FB68D31A25
:10117C000A2B0BD97B685B6A43F400327B685A629A
:10118C007B68052283F82020012312E07B681B6812
:10119C005B6803F00103002BE5D17B6800225A62E7
:1011AC00002306E07B685B6A43F400227B685A628A
:1011BC00012318461037BD4680BD80B487B000AF00
:1011CC00F860B9607A603B60FB6893F82030FB757F
:1011DC00FB7D012B03D0FB7D022B40F00381BB6810
:1011EC00002B0ED1FB681B68DB6803F00303002B9C
:1011FC0016D1FB685B6A43F40012FB685A62012348
:10120C00F7E0FB681B681B6903F00303002B07D195
:10121C00FB685B6A43F40012FB685A620123E8E046
:10122C00FB681A68BB681B331B0113441B6803F073
:10123C0004027B689A607B689B68002B0CD1FB686E
:10124C001A68BB681B331B0113441B685B0DC3F38B
:10125C000A027B681A600BE0FB681A68BB681B33D8
:10126C001B0113441B68DB0823F060427B685A6047
:10127C00FB681A68BB681B331B0113441B6803F023
:10128C0002027B68DA60FB681A68BB681B331B01BF
:10129C00134404331B6803F00803002B03D07B6852
:1012AC0008221A610BE0FB681A68BB681B331B0130
:1012BC00134404331B6803F00F027B681A61FB684C
:1012CC001A68BB681B331B01134404331B681B0ACD
:1012DC00DAB27B689A61FB681A68BB681B331B0126
:1012EC00134404331B681B0C9AB27B685A61FB686D
:1012FC001A68BB681B01134403F5DC731B68DAB274
:10130C003B681A70FB681A68BB681B01134403F531
:10131C00DC731B681A0A3B680133D2B21A70FB6883
:10132C001A68BB681B01134403F5DC731B681A0CA9
:10133C003B680233D2B21A70FB681A68BB681B0197
:10134C00134403F5DC731B681A0E3B680333D2B2EB
:10135C001A70FB681A68BB681B01134403F5DE7333
:10136C001A683B680433D2B21A70FB681A68BB68FF
:10137C001B01134403F5DE731B681A0A3B68053323
:10138C00D2B21A70FB681A68BB681B01134403F5D0
:10139C00DE731B681A0C3B680633D2B21A70FB68FA
:1013AC001A68BB681B01134403F5DE731B681A0E25
:1013BC003B680733D2B21A70BB68002B08D1FB68AC
:1013CC001B68DA68FB681B6842F02002DA6007E0F1
:1013DC00FB681B681A69FB681B6842F020021A61E3
:1013EC00002306E0FB685B6A43F48022FB685A62C8
:1013FC00012318461C37BD4680BC704780B58AB0A7
:10140C0000AF786000237B627B681B685B693B6282
:10141C007B681B685B68FB617B681B689B68BB61B6
:10142C007B681B68DB687B617B681B681B693B61A5
:10143C007B681B689B69FB603B6A03F00103002B14
:10144C007CD0BB6903F00103002B23D07B681B68A5
:10145C0001229A60BB6903F00203002B03D0786869
:10146C0000F083F916E0BB6903F00403002B04D0F1
:10147C007B6A43F400637B620CE0BB6903F00803F6
:10148C00002B04D07B6A43F480537B6202E07868C3
:10149C0000F086F9BB6903F48073002B24D07B68C1
:1014AC001B684FF480729A60BB6903F40073002BC5
:1014BC0003D0786800F062F916E0BB6903F480632E
:1014CC00002B04D07B6A43F400537B620CE0BB69B5
:1014DC0003F40063002B04D07B6A43F480437B62EB
:1014EC0002E0786800F065F9BB6903F48033002BE7
:1014FC0024D07B681B684FF480329A60BB6903F47C
:10150C000033002B03D0786800F041F916E0BB697A
:10151C0003F48023002B04D07B6A43F400437B62EA
:10152C000CE0BB6903F40023002B04D07B6A43F46A
:10153C0080337B6202E0786800F044F93B6A03F088
:10154C000803002B0CD07B6903F01003002B07D091
:10155C007B6A43F400737B627B681B681022DA6041
:10156C003B6A03F00403002B0BD07B6903F00803E8
:10157C00002B06D07B681B680822DA60786800F0C4
:10158C002AF93B6A03F00203002B09D07B681B6825
:10159C00DB6803F00303002B02D07868FEF7D0FD64
:1015AC003B6A03F04003002B0CD03B6903F01003A3
:1015BC00002B07D07B6A43F480637B627B681B68DB
:1015CC0010221A613B6A03F02003002B0BD03B69FD
:1015DC0003F00803002B06D07B681B6808221A61F5
:1015EC00786800F001F93B6A03F01003002B09D076
:1015FC007B681B681B6903F00303002B02D078681F
:10160C00FEF7D8FD3B6A03F40033002B0BD0FB69CB
:10161C0003F01003002B06D07B681B6810225A6065
:10162C00786800F0EAF83B6A03F48033002B0BD0A7
:10163C00FB6903F00803002B06D07B681B680822AB
:10164C005A60786800F0E2F83B6A03F40043002B20
:10165C007BD0FB6903F00403002B72D03B6A03F4CC
:10166C008073002B08D0FB6803F00103002B03D020
:10167C007B6A43F001037B623B6A03F40073002B2B
:10168C0008D0FB6803F00203002B03D07B6A43F005
:10169C0002037B623B6A03F48063002B08D0FB6877
:1016AC0003F00403002B03D07B6A43F004037B623A
:1016BC003B6A03F40063002B43D0FB6803F0700318
:1016CC00002B3ED0FB6803F07003602B2BD0602BFB
:1016DC002ED8502B22D0502B2AD8402B19D0402B4F
:1016EC0026D8302B10D0302B22D8102B02D0202B08
:1016FC0005D01DE07B6A43F008037B6219E07B6A2E
:10170C0043F010037B6214E07B6A43F020037B629E
:10171C000FE07B6A43F040037B620AE07B6A43F094
:10172C0080037B6205E07B6A43F480737B6200E09C
:10173C0000BF7B681B689A697B681B6822F070028B
:10174C009A617B681B6804225A607B6A002B08D064
:10175C007B685A6A7B6A1A437B685A62786800F025
:10176C005EF800BF2837BD4680BD80B483B000AFA3
:10177C00786000BF0C37BD4680BC704780B483B026
:10178C0000AF786000BF0C37BD4680BC704780B49A
:10179C0083B000AF786000BF0C37BD4680BC70478B
:1017AC0080B483B000AF786000BF0C37BD4680BCFE
:1017BC00704780B483B000AF786000BF0C37BD4673
:1017CC0080BC704780B483B000AF786000BF0C372A
:1017DC00BD4680BC704780B483B000AF786000BF5A
:1017EC000C37BD4680BC704780B483B000AF7860C6
:1017FC0000BF0C37BD4680BC704780B483B000AFCF
:10180C00786000BF0C37BD4680BC704780B483B095
:10181C0000AF786000BF0C37BD4680BC704780B409
:10182C0083B000AF786000BF0C37BD4680BC7047FA
:10183C0080B485B000AF78607B6803F00703FB6071
:10184C000C4BDB68BB60BA684FF6FF031340BB6000
:10185C00FB681A02BB68134343F0BF6343F40033C5
:10186C00BB60044ABB68D36000BF1437BD4680BC64
:10187C00704700BF00ED00E080B400AF044BDB68A4
:10188C001B0A03F007031846BD4680BC704700BF17
:10189C0000ED00E080B483B000AF0346FB7197F914
:1018AC000730002B0BDBFB7903F01F02064997F97D
:1018BC0007305B09012000FA02F241F8232000BF37
:1018CC000C37BD4680BC704700E100E080B483B0AB
:1018DC0000AF03463960FB7197F90730002B0ADB28
:1018EC003B68DAB20C4997F907301201D2B20B44BB
:1018FC0083F800230AE03B68DAB20849FB7903F06D
:10190C000F03043B1201D2B20B441A7600BF0C3702
:10191C00BD4680BC704700BF00E100E000ED00E078
:10192C0080B489B000AFF860B9607A60FB6803F0EE
:10193C000703FB61FB69C3F10703042B28BF0423D6
:10194C00BB61FB690433062B02D9FB69033B00E046
:10195C0000237B614FF0FF32BB6902FA03F3DA43D9
:10196C00BB681A407B699A404FF0FF317B6901FAE2
:10197C0003F3D9437B680B40134318462437BD4609
:10198C0080BC704780B582B000AF78607B68013B4B
:10199C00B3F1807F01D301230FE00A4A7B68013B3E
:1019AC0053600F214FF0FF30FFF790FF054B0022E3
:1019BC009A60044B07221A60002318460837BD466C
:1019CC0080BD00BF10E000E080B582B000AF786051
:1019DC007868FFF72DFF00BF0837BD4680BD80B586
:1019EC0086B000AF0346B9607A60FB7300237B615D
:1019FC00FFF742FF78617A68B9687869FFF790FF62
:101A0C00024697F90F3011461846FFF75FFF00BFEB
:101A1C001837BD4680BD80B582B000AF0346FB7160
:101A2C0097F907301846FFF735FF00BF0837BD465A
:101A3C0080BD80B582B000AF78607868FFF7A2FFF8
:101A4C00034618460837BD4680BD000080B48BB0F5
:101A5C0000AF7860396000237B6200233B6269E150
:101A6C0001227B6A02FA03F3FB613B681B68FA698B
:101A7C001340BB61BA69FB699A4240F058813B68DC
:101A8C005B689A4A93425ED0984A934275D8984ABA
:101A9C00934258D0964A93426FD8964A934252D06A
:101AAC00944A934269D8944A93424CD0924A9342B6
:101ABC0063D8924A934246D0904A93425DD8122BF7
:101ACC002AD8122B59D801A252F823F0531B000824
:101ADC002D1B00083F1B0008811B0008871B0008FA
:101AEC00871B0008871B0008871B0008871B000842
:101AFC00871B0008871B0008871B0008871B000832
:101B0C00871B0008871B0008871B0008871B000821
:101B1C00351B0008491B0008794A934213D02CE06E
:101B2C003B68DB683B6229E03B68DB6804333B6263
:101B3C0024E03B68DB6808333B621FE03B68DB68F2
:101B4C000C333B621AE03B689B68002B02D10423E8
:101B5C003B6213E03B689B68012B05D108233B6279
:101B6C007B68FA691A6109E008233B627B68FA69B1
:101B7C005A6103E000233B6200E000BFBB69FF2B0E
:101B8C0001D87B6801E07B6804337B61BB69FF2B68
:101B9C0002D87B6A9B0002E07B6A083B9B003B619E
:101BAC007B691A680F213B6901FA03F3DB431A4086
:101BBC00396A3B6901FA03F31A437B691A603B6883
:101BCC005B6803F08053002B00F0B1804D4B9B6998
:101BDC004C4A43F0010393614A4B9B6903F00103A8
:101BEC00BB60BB68484A7B6A9B08023352F82330BF
:101BFC00FB607B6A03F003039B000F2202FA03F3E2
:101C0C00DB43FA681340FB607B68404A934213D075
:101C1C007B683F4A93420DD07B683E4A934207D083
:101C2C007B683D4A934201D1032306E0042304E080
:101C3C00022302E0012300E000237A6A02F003028F
:101C4C0092009340FA681343FB602F497B6A9B0810
:101C5C000233FA6841F823203B685B6803F4801375
:101C6C00002B06D02D4B9A682C49BB6913438B6013
:101C7C0006E02A4B9A68BB69DB43284913408B600A
:101C8C003B685B6803F40013002B06D0234BDA6827
:101C9C002249BB691343CB6006E0204BDA68BB6971
:101CAC00DB431E491340CB603B685B6803F4003395
:101CBC00002B06D0194B5A681849BB6913434B606B
:101CCC0006E0164B5A68BB69DB43144913404B6062
:101CDC003B685B6803F48033002B21D00F4B1A68F0
:101CEC000E49BB6913430B6021E000BF00003210AA
:101CFC000000311000002210000021100000121012
:101D0C0000001110001002400000014000080140CA
:101D1C00000C01400010014000140140000401407F
:101D2C000B4B1A68BB69DB43094913400B607B6A98
:101D3C0001337B623B681A687B6A22FA03F3002B3F
:101D4C007FF48EAE00BF00BF2C37BD4680BC704701
:101D5C000004014080B483B000AF78600B467B80F8
:101D6C0013467B707B78002B03D07A887B681A61D2
:101D7C0003E07B881A047B681A6100BF0C37BD46F0
:101D8C0080BC704780B485B000AF78600B467B8018
:101D9C007B68DB68FB607A88FB6813401A04FB687D
:101DAC00D9437B880B401A437B681A6100BF1437F8
:101DBC00BD4680BC7047000080B584B000AF786031
:101DCC007B68002B01D101232BE17B6893F83D301C
:101DDC00DBB2002B06D17B68002283F83C207868AC
:101DEC00FEF78CFD7B68242283F83D207B681B6802
:101DFC001A687B681B6822F001021A607B681B68FA
:101E0C001A687B681B6842F400421A607B681B6886
:101E1C001A687B681B6822F400421A6000F0DAFC36
:101E2C00F8607B685B68814A934207D8FB68804AFC
:101E3C00934294BF01230023DBB206E0FB687D4A8A
:101E4C00934294BF01230023DBB2002B01D001236A
:101E5C00E7E0FB68784AA2FB03239B0CBB607B6822
:101E6C001B685B6823F03F017B681B68BA680A43F8
:101E7C005A607B681B681B6A23F03F017B685B68B8
:101E8C006A4A934202D8BB68013309E0BB684FF43D
:101E9C00967202FB03F3694AA2FB03239B090133ED
:101EAC007A6812680B4313627B681B68DB6923F446
:101EBC004F4222F0FF027B685B685C498B4219D869
:101ECC00FB68591E7B685B685B00B1FBF3F3591C24
:101EDC0040F6FC730B40002B0AD0FB68591E7B6844
:101EEC005B685B00B1FBF3F30133C3F30B0351E00D
:101EFC0004234FE07B689B68002B11D1FB68581EB4
:101F0C007B6859680B465B000B44B0FBF3F3013361
:101F1C00C3F30B03002B0CBF01230023DBB212E035
:101F2C00FB68581E7B6859680B469B000B44990054
:101F3C000B44B0FBF3F30133C3F30B03002B0CBFC7
:101F4C0001230023DBB2002B01D0012322E07B68AC
:101F5C009B68002B0ED1FB68581E7B6859680B469A
:101F6C005B000B44B0FBF3F30133C3F30B0343F4FB
:101F7C0000430FE0FB68581E7B6859680B469B00BA
:101F8C000B4499000B44B0FBF3F30133C3F30B0385
:101F9C0043F44043796809681343CB617B681B6841
:101FAC001B6823F0C0017B68DA697B681B6A1A43E3
:101FBC007B681B680A431A607B681B689B6823F468
:101FCC00034323F0FF037A6811697A68D2681143DE
:101FDC007A6812680B4393607B681B68DB6823F09C
:101FEC00FF017B685A697B689B691A437B681B6895
:101FFC000A43DA607B681B681A687B681B6842F0CE
:10200C0001021A607B6800221A647B68202283F824
:10201C003D207B6800221A637B68002283F83E20F7
:10202C00002318461037BD4680BD00BFA0860100B6
:10203C007F841E00FF083D0083DE1B43D34D6210DE
:10204C0080B586B000AF78607B68002B01D101238E
:10205C0072E27B681B6803F00103002B00F08780A1
:10206C00924B5B6803F00C03042B0CD08F4B5B681A
:10207C0003F00C03082B12D18C4B5B6803F48033F8
:10208C00B3F5803F0BD1894B1B6803F40033002B55
:10209C006CD07B685B68002B68D101234CE27B68B9
:1020AC005B68B3F5803F06D1804B1B687F4A43F4D5
:1020BC00803313602EE07B685B68002B0CD17B4B6C
:1020CC001B687A4A23F480331360784B1B68774A79
:1020DC0023F4802313601DE07B685B68B3F5A02FAD
:1020EC000CD1724B1B68714A43F4802313606F4B05
:1020FC001B686E4A43F4803313600BE06B4B1B6818
:10210C006A4A23F480331360684B1B68674A23F4D4
:10211C00802313607B685B68002B13D0FEF7E0FE16
:10212C00386108E0FEF7DCFE02463B69D31A642BEB
:10213C0001D9032300E25D4B1B6803F40033002B31
:10214C00F0D014E0FEF7CCFE386108E0FEF7C8FED4
:10215C0002463B69D31A642B01D90323ECE1534BA0
:10216C001B6803F40033002BF0D100E000BF7B6848
:10217C001B6803F00203002B63D04C4B5B6803F02D
:10218C000C03002B0BD0494B5B6803F00C03082BA2
:10219C001CD1464B5B6803F48033002B16D1434BA8
:1021AC001B6803F00203002B05D07B681B69012B15
:1021BC0001D00123C0E13D4B1B6823F0F8027B6882
:1021CC005B69DB00394913430B603AE07B681B69A0
:1021DC00002B20D0364B01221A60FEF781FE3861AD
:1021EC0008E0FEF77DFE02463B69D31A022B01D9AB
:1021FC000323A1E12D4B1B6803F00203002BF0D04D
:10220C002A4B1B6823F0F8027B685B69DB002749CB
:10221C0013430B6015E0264B00221A60FEF760FE9C
:10222C00386108E0FEF75CFE02463B69D31A022BCC
:10223C0001D9032380E11D4B1B6803F00203002B23
:10224C00F0D17B681B6803F00803002B3AD07B6845
:10225C009B69002B19D0174B01221A60FEF740FE28
:10226C00386108E0FEF73CFE02463B69D31A022BAC
:10227C0001D9032360E10D4B5B6A03F00203002BD1
:10228C00F0D0012000F0CEFA1CE00A4B00221A60BC
:10229C00FEF726FE38610FE0FEF722FE02463B6990
:1022AC00D31A022B08D9032346E100BF00100240C9
:1022BC000000424280044242924B5B6A03F00203EC
:1022CC00002BE9D17B681B6803F00403002B00F0A2
:1022DC00A6800023FB758B4BDB6903F08053002B2E
:1022EC000DD1884BDB69874A43F08053D361854B12
:1022FC00DB6903F08053BB60BB680123FB75824B29
:10230C001B6803F48073002B18D17F4B1B687E4A2B
:10231C0043F480731360FEF7E3FD386108E0FEF7C9
:10232C00DFFD02463B69D31A642B01D9032303E179
:10233C00754B1B6803F48073002BF0D07B68DB6853
:10234C00012B06D16F4B1B6A6E4A43F001031362DB
:10235C002DE07B68DB68002B0CD16A4B1B6A694A49
:10236C0023F001031362674B1B6A664A23F00403D4
:10237C0013621CE07B68DB68052B0CD1614B1B6A7C
:10238C00604A43F0040313625E4B1B6A5D4A43F0E0
:10239C00010313620BE05B4B1B6A5A4A23F00103E7
:1023AC001362584B1B6A574A23F0040313627B6871
:1023BC00DB68002B15D0FEF793FD38610AE0FEF7C1
:1023CC008FFD02463B69D31A41F28832934201D900
:1023DC000323B1E04B4B1B6A03F00203002BEED03E
:1023EC0014E0FEF77DFD38610AE0FEF779FD024648
:1023FC003B69D31A41F28832934201D903239BE003
:10240C00404B1B6A03F00203002BEED1FB7D012B2A
:10241C0005D13C4BDB693B4A23F08053D3617B688D
:10242C00DB69002B00F08780364B5B6803F00C03F4
:10243C00082B61D07B68DB69022B46D1334B002221
:10244C001A60FEF74DFD386108E0FEF749FD0246C3
:10245C003B69D31A022B01D903236DE0294B1B686E
:10246C0003F00073002BF0D17B681B6AB3F5803F3F
:10247C0008D1244B5B6823F400327B689B682149AC
:10248C0013434B601F4B5B6823F474127B68196A0F
:10249C007B685B6A0B431B4913434B601B4B01224C
:1024AC001A60FEF71DFD386108E0FEF719FD0246C3
:1024BC003B69D31A022B01D903233DE0114B1B6856
:1024CC0003F00073002BF0D035E0104B00221A60A3
:1024DC00FEF706FD386108E0FEF702FD02463B6997
:1024EC00D31A022B01D9032326E0064B1B6803F0F9
:1024FC000073002BF0D11EE07B68DB69012B07D148
:10250C00012319E0001002400070004060004242BC
:10251C000B4B5B68FB60FB6803F480327B681B6AC7
:10252C009A4206D1FB6803F470127B685B6A9A428C
:10253C0001D0012300E0002318461837BD4680BDAA
:10254C000010024080B584B000AF786039607B68C1
:10255C00002B01D10123D0E06A4B1B6803F0070369
:10256C003A689A4210D9674B1B6823F007026549F9
:10257C003B6813430B60634B1B6803F007033A681B
:10258C009A4201D00123B8E07B681B6803F0020378
:10259C00002B20D07B681B6803F00403002B05D0B4
:1025AC00594B5B68584A43F4E06353607B681B6883
:1025BC0003F00803002B05D0534B5B68524A43F4DD
:1025CC0060535360504B5B6823F0F0027B689B6850
:1025DC004D4913434B607B681B6803F00103002BD0
:1025EC0040D07B685B68012B07D1474B1B6803F419
:1025FC000033002B15D101237FE07B685B68022B35
:10260C0007D1414B1B6803F00073002B09D1012348
:10261C0073E03D4B1B6803F00203002B01D1012337
:10262C006BE0394B5B6823F003027B685B683649CF
:10263C0013434B60FEF754FCF8600AE0FEF750FCC5
:10264C000246FB68D31A41F28832934201D9032324
:10265C0053E02D4B5B6803F00C027B685B689B00BE
:10266C009A42EBD1274B1B6803F007033A689A4256
:10267C0010D2244B1B6823F0070222493B681343FA
:10268C000B60204B1B6803F007033A689A4201D099
:10269C00012332E07B681B6803F00403002B08D095
:1026AC00194B5B6823F4E0627B68DB6816491343C3
:1026BC004B607B681B6803F00803002B09D0124B9E
:1026CC005B6823F460527B681B69DB000E49134383
:1026DC004B6000F021F802460B4B5B681B0903F0C2
:1026EC000F030A49CB5C22FA03F3094A1360094B26
:1026FC001B681846FEF7B2FB002318461037BD4680
:10270C0080BD00BF0020024000100240784200084B
:10271C00000000200400002080B487B000AF00232C
:10272C00FB600023BB6000237B6100237B600023E4
:10273C003B611E4B5B68FB60FB6803F00C03042BD6
:10274C0002D0082B03D027E0194B3B6127E0FB6834
:10275C009B0C03F00F03174AD35C7B60FB6803F4FC
:10276C008033002B10D0114B5B685B0C03F0010322
:10277C00114AD35CBB607B680D4A03FB02F2BB6859
:10278C00B2FBF3F37B6104E07B680C4A02FB03F3BE
:10279C007B617B693B6102E0054B3B6100BF3B69A0
:1027AC0018461C37BD4680BC704700BF0010024065
:1027BC0000127A0090420008A042000800093D0077
:1027CC0080B400AF024B1B681846BD4680BC7047F6
:1027DC000000002080B500AFFFF7F2FF0246054B6A
:1027EC005B681B0A03F007030349CB5C22FA03F373
:1027FC00184680BD001002408842000880B500AF2A
:10280C00FFF7DEFF0246054B5B68DB0A03F00703AC
:10281C000349CB5C22FA03F3184680BD001002403A
:10282C008842000880B485B000AF78600A4B1B6802
:10283C000A4AA2FB03235B0A7A6802FB03F3FB60E0
:10284C0000BFFB685A1EFA60002BF9D100BF00BF15
:10285C001437BD4680BC704700000020D34D621079
:10286C0080B582B000AF78607B68002B01D101236A
:10287C0076E07B685B6A002B08D17B685B68B3F5FC
:10288C00827F09D07B680022DA6105E07B68002238
:10289C001A617B6800225A617B6800229A627B680D
:1028AC0093F85130DBB2002B06D17B68002283F801
:1028BC0050207868FEF762F87B68022283F851207A
:1028CC007B681B681A687B681B6822F040021A60E0
:1028DC007B685B6803F482727B689B6803F4044337
:1028EC001A437B68DB6803F400631A437B681B693B
:1028FC0003F002031A437B685B6903F001031A437C
:10290C007B689B6903F400731A437B68DB6903F0F3
:10291C0038031A437B681B6A03F0800342EA030105
:10292C007B689B6A03F400527B681B680A431A603D
:10293C007B689B691A0C7B681B6802F004025A6066
:10294C007B681B68DA697B681B6822F40062DA61B9
:10295C007B6800225A657B68012283F85120002392
:10296C0018460837BD4680BD80B582B000AF786090
:10297C007B68002B01D1012341E07B6893F83D304B
:10298C00DBB2002B06D17B68002283F83C207868F0
:10299C00FEF77AF87B68022283F83D207B681A6880
:1029AC007B6804331946104600F0FCFA7B68012260
:1029BC0083F846207B68012283F83E207B68012245
:1029CC0083F83F207B68012283F840207B6801223A
:1029DC0083F841207B68012283F842207B68012226
:1029EC0083F843207B68012283F844207B68012212
:1029FC0083F845207B68012283F83D20002318468C
:102A0C000837BD4680BD000080B485B000AF78604B
:102A1C007B6893F83D30DBB2012B01D001233AE007
:102A2C007B68022283F83D207B681B68DA687B6830
:102A3C001B6842F00102DA607B681B68184A9342FB
:102A4C000ED07B681B68B3F1804F09D07B681B6884
:102A5C00144A934204D07B681B68134A934211D1E9
:102A6C007B681B689B6803F00703FB60FB68062B05
:102A7C0010D07B681B681A687B681B6842F00102E7
:102A8C001A6007E07B681B681A687B681B6842F059
:102A9C0001021A60002318461437BD4680BC7047EB
:102AAC00002C0140000400400008004080B582B0BA
:102ABC0000AF78607B68002B01D1012341E07B687B
:102ACC0093F83D30DBB2002B06D17B68002283F8F3
:102ADC003C207868FDF7F6FF7B68022283F83D20E6
:102AEC007B681A687B6804331946104600F05AFA62
:102AFC007B68012283F846207B68012283F83E2004
:102B0C007B68012283F83F207B68012283F84020F8
:102B1C007B68012283F841207B68012283F84220E4
:102B2C007B68012283F843207B68012283F84420D0
:102B3C007B68012283F845207B68012283F83D20C5
:102B4C00002318460837BD4680BD80B586B000AF5F
:102B5C00786039607B68002B01D1012393E07B689E
:102B6C0093F83D30DBB2002B06D17B68002283F852
:102B7C003C207868FDF74CFF7B68022283F83D20EF
:102B8C007B681B689B687A68126823F4804323F087
:102B9C00070393607B681A687B68043319461046F8
:102BAC0000F000FA7B681B689B687B617B681B6884
:102BBC009B693B617B681B681B6AFB603B681B68FD
:102BCC007A6913437B613B6923F4407323F003035D
:102BDC003B613B689A683B689B691B0213433A69EB
:102BEC0013433B613B6923F4406323F00C033B61CB
:102BFC003B6923F4704323F0F0033B613B68DA68D4
:102C0C003B68DB691B0213433A6913433B613B6826
:102C1C001B691A013B681B6A1B0313433A69134374
:102C2C003B61FB6823F02203FB603B685A683B68FE
:102C3C005B691B011343FA681343FB607B681B68D9
:102C4C007A699A607B681B683A699A617B681B6831
:102C5C00FA681A627B68012283F846207B6801229D
:102C6C0083F83E207B68012283F83F207B68012299
:102C7C0083F842207B68012283F843207B68012281
:102C8C0083F83D20002318461837BD4680BD000050
:102C9C0080B586B000AFF860B9607A600023FB7530
:102CAC00FB6893F83C30012B01D10223AEE0FB68AA
:102CBC00012283F83C207B680C2B00F29F8001A240
:102CCC0052F823F0052D0008092E0008092E0008E3
:102CDC00092E0008452D0008092E0008092E0008B1
:102CEC00092E0008872D0008092E0008092E00085F
:102CFC00092E0008C72D0008FB681B68B968184628
:102D0C0000F0B2F9FB681B689A69FB681B6842F01B
:102D1C0008029A61FB681B689A69FB681B6822F0C1
:102D2C0004029A61FB681B689969BB681A69FB68A5
:102D3C001B680A439A6164E0FB681B68B968184613
:102D4C0000F0F8F9FB681B689A69FB681B6842F491
:102D5C0000629A61FB681B689A69FB681B6822F425
:102D6C0080629A61FB681B689969BB681B691A02CF
:102D7C00FB681B680A439A6143E0FB681B68B968EF
:102D8C00184600F041FAFB681B68DA69FB681B689F
:102D9C0042F00802DA61FB681B68DA69FB681B68A1
:102DAC0022F00402DA61FB681B68D969BB681A69F6
:102DBC00FB681B680A43DA6123E0FB681B68B9688F
:102DCC00184600F08BFAFB681B68DA69FB681B6815
:102DDC0042F40062DA61FB681B68DA69FB681B6805
:102DEC0022F48062DA61FB681B68D969BB681B69D5
:102DFC001A02FB681B680A43DA6102E00123FB75C7
:102E0C0000BFFB68002283F83C20FB7D1846183776
:102E1C00BD4680BD80B584B000AF786039600023BA
:102E2C00FB737B6893F83C30012B01D10223B4E097
:102E3C007B68012283F83C207B68022283F83D20CA
:102E4C007B681B689B68BB60BB6823F07703BB6027
:102E5C00BB6823F47F43BB607B681B68BA689A60CD
:102E6C003B681B68B3F5005F3ED0B3F5005F00F222
:102E7C008780B3F5805F00F08680B3F5805F7FD8E4
:102E8C00702B1AD0702B7BD8602B50D0602B77D83E
:102E9C00502B3CD0502B73D8402B58D0402B6FD894
:102EAC00302B64D0302B6BD8202B60D0202B67D8E4
:102EBC00002B5CD0102B5AD062E07B6818683B6802
:102ECC0099683B685A683B68DB6800F0CCFA7B6811
:102EDC001B689B68BB60BB6843F07703BB607B6877
:102EEC001B68BA689A604FE07B6818683B68996801
:102EFC003B685A683B68DB6800F0B5FA7B681B6876
:102F0C009A687B681B6842F480429A603CE07B685C
:102F1C0018683B6859683B68DB681A4600F02CFA65
:102F2C007B681B685021184600F083FA2CE07B6804
:102F3C0018683B6859683B68DB681A4600F04AFA27
:102F4C007B681B686021184600F073FA1CE07B68F4
:102F5C0018683B6859683B68DB681A4600F00CFA45
:102F6C007B681B684021184600F063FA0CE07B6814
:102F7C001A683B681B681946104600F05AFA03E0C1
:102F8C000123FB7300E000BF7B68012283F83D2026
:102F9C007B68002283F83C20FB7B18461037BD462B
:102FAC0080BD000080B485B000AF786039607B686C
:102FBC001B68FB607B68294A93420BD07B68B3F19A
:102FCC00804F07D07B68264A934203D07B68254A02
:102FDC00934208D1FB6823F07003FB603B685B688D
:102FEC00FA681343FB607B681C4A93420BD07B68E6
:102FFC00B3F1804F07D07B68194A934203D07B68AA
:10300C00184A934208D1FB6823F44073FB603B6879
:10301C00DB68FA681343FB60FB6823F080023B68B3
:10302C005B691343FB607B68FA681A603B689A68BB
:10303C007B68DA623B681A687B689A627B68074A2D
:10304C00934203D13B681A697B681A637B6801223F
:10305C005A6100BF1437BD4680BC7047002C01403C
:10306C00000400400008004080B487B000AF7860D6
:10307C0039607B681B6A7B617B681B6A23F00102E9
:10308C007B681A627B685B683B617B689B69FB6051
:10309C00FB6823F07003FB60FB6823F00303FB6009
:1030AC003B681B68FA681343FB607B6923F00203DF
:1030BC007B613B689B687A6913437B617B681C4A24
:1030CC0093420CD17B6923F008037B613B68DB687E
:1030DC007A6913437B617B6923F004037B617B6812
:1030EC00134A934211D13B6923F480733B613B69D2
:1030FC0023F400733B613B685B693A6913433B61A2
:10310C003B689B693A6913433B617B683A695A6037
:10311C007B68FA689A613B685A687B685A637B687B
:10312C007A691A6200BF1C37BD4680BC704700BF6D
:10313C00002C014080B487B000AF786039607B68A8
:10314C001B6A7B617B681B6A23F010027B681A6226
:10315C007B685B683B617B689B69FB60FB6823F465
:10316C00E043FB60FB6823F44073FB603B681B6827
:10317C001B02FA681343FB607B6923F020037B611D
:10318C003B689B681B017A6913437B617B681D4A12
:10319C0093420DD17B6923F080037B613B68DB6834
:1031AC001B017A6913437B617B6923F040037B61CC
:1031BC007B68144A934213D13B6923F480633B61CF
:1031CC003B6923F400633B613B685B699B003A6994
:1031DC0013433B613B689B699B003A6913433B611A
:1031EC007B683A695A607B68FA689A613B685A68EE
:1031FC007B689A637B687A691A6200BF1C37BD468C
:10320C0080BC7047002C014080B487B000AF786060
:10321C0039607B681B6A7B617B681B6A23F4807254
:10322C007B681A627B685B683B617B68DB69FB606F
:10323C00FB6823F07003FB60FB6823F00303FB6067
:10324C003B681B68FA681343FB607B6923F40073CB
:10325C007B613B689B681B027A6913437B617B68CB
:10326C001D4A93420DD17B6923F400637B613B685B
:10327C00DB681B027A6913437B617B6923F48063EF
:10328C007B617B68144A934213D13B6923F48053CE
:10329C003B613B6923F400533B613B685B691B0159
:1032AC003A6913433B613B689B691B013A691343C1
:1032BC003B617B683A695A607B68FA68DA613B6803
:1032CC005A687B68DA637B687A691A6200BF1C37BC
:1032DC00BD4680BC704700BF002C014080B487B055
:1032EC0000AF786039607B681B6A3B617B681B6A46
:1032FC0023F480527B681A627B685B687B617B6815
:10330C00DB69FB60FB6823F4E043FB60FB6823F4A0
:10331C004073FB603B681B681B02FA681343FB603D
:10332C003B6923F400533B613B689B681B033A6980
:10333C0013433B617B680F4A934209D17B6923F4A9
:10334C0080437B613B685B699B017A6913437B61BA
:10335C007B687A695A607B68FA68DA613B685A68FC
:10336C007B681A647B683A691A6200BF1C37BD46D9
:10337C0080BC7047002C014080B487B000AFF8606F
:10338C00B9607A60FB681B6A7B61FB681B6A23F07F
:10339C000102FB681A62FB689B693B613B6923F085
:1033AC00F0033B617B681B013A6913433B617B690A
:1033BC0023F00A037B617A69BB6813437B61FB686A
:1033CC003A699A61FB687A691A6200BF1C37BD467C
:1033DC0080BC704780B487B000AFF860B9607A6089
:1033EC00FB681B6A7B61FB681B6A23F01002FB689D
:1033FC001A62FB689B693B613B6923F470433B6138
:10340C007B681B033A6913433B617B6923F0A00380
:10341C007B61BB681B017A6913437B61FB683A696A
:10342C009A61FB687A691A6200BF1C37BD4680BC82
:10343C00704780B485B000AF786039607B689B685A
:10344C00FB60FB6823F07003FB603A68FB68134376
:10345C0043F00703FB607B68FA689A6000BF14377F
:10346C00BD4680BC704780B487B000AFF860B960CF
:10347C007A603B60FB689B687B617B6923F47F43CC
:10348C007B613B681A027B681A43BB6813437A69F9
:10349C0013437B61FB687A699A6000BF1C37BD4699
:1034AC0080BC704780B485B000AF786039607B68B1
:1034BC0093F83C30012B01D1022346E07B680122BA
:1034CC0083F83C207B68022283F83D207B681B68D4
:1034DC005B68FB607B681B689B68BB60FB6823F0C8
:1034EC007003FB603B681B68FA681343FB607B68E6
:1034FC001B68FA685A607B681B68164A93420ED0A8
:10350C007B681B68B3F1804F09D07B681B68124A3B
:10351C00934204D07B681B68104A93420CD1BB6861
:10352C0023F08003BB603B685B68BA681343BB60E5
:10353C007B681B68BA689A607B68012283F83D201F
:10354C007B68002283F83C20002318461437BD46C4
:10355C0080BC7047002C0140000400400008004073
:10356C0080B582B000AF78607B68002B01D101235D
:10357C0042E07B6893F84130DBB2002B06D17B68CC
:10358C00002283F840207868FDF7ECFA7B6824224F
:10359C0083F841207B681B68DA687B681B6822F41F
:1035AC000052DA60786800F01DF97B681B681A69B4
:1035BC007B681B6822F490421A617B681B685A690D
:1035CC007B681B6822F02A025A617B681B68DA68E8
:1035DC007B681B6842F40052DA607B6800225A64F4
:1035EC007B68202283F841207B68202283F84220CC
:1035FC007B6800225A63002318460837BD4680BDFD
:10360C0080B58AB002AFF860B9603B601346FB80AE
:10361C0000237B61FB6893F84130DBB2202B6DD12A
:10362C00BB68002B02D0FB88002B01D1012366E084
:10363C00FB6800225A64FB68212283F84120FDF7C5
:10364C004FFC7861FB68FA889A84FB68FA88DA8404
:10365C00FB689B68B3F5805F08D1FB681B69002B86
:10366C0004D10023FB61BB68BB6103E0BB68FB6159
:10367C000023BB612AE03B6800937B690022802118
:10368C00F86800F040F80346002B01D0032336E025
:10369C00FB69002B0BD1BB691B881A46FB681B68A6
:1036AC00C2F308025A60BB690233BB6107E0FB69D5
:1036BC001A78FB681B685A60FB690133FB61FB6875
:1036CC00DB8C9BB2013B9AB2FB68DA84FB68DB8C27
:1036DC009BB2002BCFD13B6800937B690022402129
:1036EC00F86800F010F80346002B01D0032306E025
:1036FC00FB68202283F84120002300E002231846B7
:10370C002037BD4680BD80B590B000AFF860B96081
:10371C003B601346FB7150E0BB6CB3F1FF3F4CD0E8
:10372C00BB6C002B07D0FDF7DBFB02463B68D31AC2
:10373C00BA6C9A4241D2FB681B680C33BB62BB6A01
:10374C0053E8003F7B627B6A23F4D073FB63FB6816
:10375C001B680C33FA6B7A633B63396B7A6B41E809
:10376C000023FB62FB6A002BE5D1FB681B6814335A
:10377C007B617B6953E8003F3B613B6923F00103AC
:10378C00BB63FB681B681433BA6B3A62FB61F96963
:10379C003A6A41E80023BB61BB69002BE5D1FB68A9
:1037AC00202283F84120FB68202283F84220FB680A
:1037BC00002283F8402003230FE0FB681B681A6883
:1037CC00BB681340BA689A420CBF01230023DBB2DA
:1037DC001A46FB799A429FD0002318464037BD46C3
:1037EC0080BD000080B584B000AF78607B681B683A
:1037FC001B6923F440517B68DA687B681B680A43B9
:10380C001A617B689A687B681B691A437B685B69E1
:10381C001343BB607B681B68DB6823F4B05323F055
:10382C000C037A681268B9680B43D3607B681B6819
:10383C005B6923F440717B689A697B681B680A4357
:10384C005A617B681B682C4A934203D1FEF7D6FF62
:10385C00F86002E0FEF7BEFFF860FA6813469B00C2
:10386C0013449A001A447B685B689B00B2FBF3F329
:10387C00224AA2FB03235B091901FA6813469B0039
:10388C0013449A001A447B685B689B00B2FBF3F20A
:10389C001A4BA3FB02035B09642000FB03F3D31A4E
:1038AC001B013233154AA2FB03235B0903F0F0031F
:1038BC001944FA6813469B0013449A001A447B6817
:1038CC005B689B00B2FBF3F20C4BA3FB02035B099E
:1038DC00642000FB03F3D31A1B013233074AA2FB0B
:1038EC0003235B0903F00F027B681B680A449A6090
:1038FC0000BF1037BD4680BD003801401F85EB511D
:10390C00002310B50446C0E90033C0E904338360DA
:10391C0081814366C2818361194608225C3000F0C4
:10392C00E5F90D4B246263620C4BA3620C4BE36212
:10393C000C4B23630C4B9C4206D003F1680294425F
:10394C0002D0D0339C4205D104F15800BDE81040A0
:10395C0000F044BA10BD00BF493B00086B3B0008A7
:10396C00A33B0008C73B0008A8020020024A0349F9
:10397C00034800F069B800BF0C000020DD400008CF
:10398C001800002041680C4B10B59942044601D038
:10399C0000F09EFBA168094B994202D0204600F032
:1039AC0097FBE168064B994204D02046BDE81040D5
:1039BC0000F08EBB10BD00BFA80200201003002039
:1039CC007803002010B50B4B0B4C0C4A20461A60A8
:1039DC0004210022FFF794FF04F168000122092161
:1039EC00FFF78EFF04F1D0000222BDE81040122137
:1039FC00FFF786BFE0030020A802002079390008F9
:103A0C00014800F0ECB900BFE9030020014800F0C8
:103A1C00E7B900BFE903002010B50446FFF7F0FF3B
:103A2C00236A1BB1BDE81040FFF7F0BF044B2362C3
:103A3C00044B1B68002BF5D1FFF7C4FFF2E700BF66
:103A4C0091390008E00300202DE9F8430746884629
:103A5C0014460026D4E90195B9F1010905D524686D
:103A6C00002CF7D13046BDE8F883AB89012B07D980
:103A7C00B5F90E30013303D029463846C04706430A
:103A8C006835E9E7036A70B505460E4684680BB9DC
:103A9C00FFF7C2FF636EDB0705D4A389980502D438
:103AAC00A06D00F09CF9A389190713D523698BB17C
:103ABC00013EA36816F8011F013BA360E9B9002B76
:103ACC002EDA22460A21284600F07BF8013007D076
:103ADC000A2507E02146284600F0B0F80028E7D078
:103AEC004FF0FF35636EDA0705D4A3899B0502D42A
:103AFC00A06D00F075F9284670BD002B04DAA269A0
:103B0C009A4206DC0A2904D023685A1C22601970D8
:103B1C00CFE72246284600F054F80130C9D1DFE740
:103B2C000A2523685A1C22601D70DBE7024B0146F4
:103B3C001868FFF7A7BF00BF6400002010B50C4643
:103B4C00B1F90E1000F0FCF80028ABBF636DA3892F
:103B5C001B1823F48053ACBF6365A38110BD2DE902
:103B6C00F0411F468B890546DB050C46164605D5EC
:103B7C0002230022B1F90E1000F0D0F8A3893246CE
:103B8C0023F48053A38128463B46B4F90E10BDE8BC
:103B9C00F04100F0E7B810B50C46B1F90E1000F08A
:103BAC00BDF8431CA38915BF606523F4805343F40F
:103BBC008053A38118BFA38110BDB1F90E1000F082
:103BCC009DB8F8B50E461446054618B1036A0BB9F4
:103BDC00FFF722FFA369A360A3891A0725D52369E0
:103BEC001BB323682269F6B2981A6369374683427D
:103BFC0004DC2146284600F06BFAE0B9A368013BCF
:103C0C00A36023685A1C22601E706269431C9A428E
:103C1C0004D0A389DB0706D50A2E04D121462846F9
:103C2C0000F056FA38B93846F8BD2146284600F05F
:103C3C0005F80028D5D04FF0FF37F4E738B52A4BFC
:103C4C00054618680C4618B1036A0BB9FFF7E4FE79
:103C5C00A389B4F90C20180722D4D90607D4092358
:103C6C002B6042F040034FF0FF30A38134E0580743
:103C7C0012D5616B41B104F14403994202D028463C
:103C8C0000F0B0F800236363A38923F02403A3811D
:103C9C000023636023692360A38943F00803A38195
:103CAC0023694BB9A38903F42073B3F5007F03D0C8
:103CBC002146284600F059FAA089B4F90C2010F0DE
:103CCC0001030AD00023A36063695B42A3612369EB
:103CDC0043B910F08000C4D138BD810758BF636967
:103CEC00A360F4E70020F7E76400002003460244D9
:103CFC00934200D1704703F8011BF9E738B5002354
:103D0C00054D044608462B60FCF7EDFF431C02D121
:103D1C002B6803B1236038BDE403002038B504469A
:103D2C00084611460022054D2A601A46FCF7FFFF93
:103D3C00431C02D12B6803B1236038BDE40300207F
:103D4C0038B50446084611460022054D2A601A462D
:103D5C00FCF790FF431C02D12B6803B1236038BDE4
:103D6C00E403002038B50446084611460022054DF0
:103D7C002A601A46FCF79BFF431C02D12B6803B147
:103D8C00236038BDE4030020014B1868704700BF66
:103D9C006400002070B500260C4D0D4C641BA41063
:103DAC00A64209D100F050FA00260A4D0A4C641BB9
:103DBC00A410A64205D170BD55F8043B98470136B6
:103DCC00EEE755F8043B98470136F2E7A4420008A9
:103DDC00A4420008A4420008A8420008704770479B
:103DEC007047000038B50546002940D051F8043C16
:103DFC000C1F002BB8BFE41800F0DCF81C4A136849
:103E0C0033B9636014602846BDE8384000F0D8B878
:103E1C00A34208D9206821188B4201BF19685B683E
:103E2C0009182160EDE71A465B680BB1A342FAD979
:103E3C0011685018A0420BD12068014450188342DD
:103E4C001160E0D118685B68084410605360DAE7D1
:103E5C0002D90C232B60D6E7206821188B4201BFB6
:103E6C0019685B680918216063605460CBE738BD42
:103E7C00EC03002070B50E4E0C463168054611B9A6
:103E8C0000F0D2F930602146284600F0CDF9431CF1
:103E9C000AD0C41C24F00304A04207D0211A2846DF
:103EAC0000F0C2F9013001D14FF0FF34204670BD53
:103EBC00F00300202DE9F843CD1C25F0030508354F
:103ECC000C2D38BF0C25002D074601DBA94205D966
:103EDC000C2300263B603046BDE8F883DFF8D08029
:103EEC0000F068F8D8F800301C465CBB2946384610
:103EFC00FFF7C0FF431C044655D1D8F800402646B6
:103F0C00002E45D1002C48D023683146384604EBAE
:103F1C00030900F089F981453FD1216838466D1AB3
:103F2C002946FFF7A7FF013037D023682B442360C5
:103F3C00D8F80030002B38D05A68A2422BD100227E
:103F4C005A600FE02268521B1FD40B2A17D9611933
:103F5C00A342256018BF5960636808BFC8F80010F9
:103F6C0062514B60384604F10B0600F029F826F03C
:103F7C000706231DF21AAED09B1BA350ABE7A3423E
:103F8C006268DDD1C8F80020ECE723466468ACE732
:103F9C0034467668B4E71346CCE70C2338463B60CE
:103FAC0000F00EF897E72560DCE75B60FFDE00BFF2
:103FBC00EC0300200148FFF712BF00BFE80300200C
:103FCC000148FFF70DBF00BFE80300208A89F8B550
:103FDC00054610070C4657D44B68002B04DC0B6CC1
:103FEC00002B01DC0020F8BDE66A002EFAD000237D
:103FFC0012F480522F68216A2B6032D0606DA38935
:10400C005A0705D56368C01A636B0BB1236CC01AD1
:10401C0000230246E66A2846216AB047431CA3895E
:10402C0006D129681D292BD8284A0A41D60727D43E
:10403C00002262602269D904226004D5421C01D19D
:10404C002B6803B96065616B2F600029CAD004F13D
:10405C004403994202D02846FFF7C4FE0020606357
:10406C00C1E701232846B047411CC8D12B68002B5F
:10407C00C5D01D2B01D0162B01D12F60B2E7A3891F
:10408C0043F04003A381AEE70F69002FAAD093073A
:10409C0018BF00230E6808BF4B69F61B0F608B60BE
:1040AC00002E9FDD33463A462846216AD4F828C0B4
:1040BC00E047002806DCA3894FF0FF3043F04003B3
:1040CC00A38190E70744361AEAE700BFFEFFBFDF83
:1040DC0038B50B6905460C4613B90025284638BD82
:1040EC0018B1036A0BB9FFF797FCB4F90C30002B2D
:1040FC00F3D0626ED00704D4990502D4A06DFFF7FB
:10410C006EFE28462146FFF761FF636E0546DA070F
:10411C00E4D4A3899B05E1D4A06DFFF761FEDDE734
:10412C0070B50C46B1F90E10154600291E4696B016
:10413C000CDAA389002113F0800F0CBF4FF48063BD
:10414C004023002031602B6016B070BD6A4600F031
:10415C0049F80028EDDB019901F47041A1F50053F9
:10416C00594259414FF48063EBE78B8973B59D0736
:10417C0006460C4607D504F147032360236101234F
:10418C00636102B070BD6A4601ABFFF7C9FF0099CD
:10419C0005463046FFF78EFE48B9B4F90C309A0547
:1041AC00EFD423F0030343F00203A381E3E7A389D5
:1041BC00206043F08003A381009B20616361019B1D
:1041CC005BB13046B4F90E1000F01EF828B1A3898B
:1041DC0023F0030343F00103A381A3891D43A581AD
:1041EC00CFE7000038B50023064D044608461146BB
:1041FC002B60FCF783FD431C02D12B6803B12360B9
:10420C0038BD00BFE403002038B50023054D04463B
:10421C0008462B60FCF781FD431C02D12B6803B1CF
:10422C00236038BDE403002038B50023054D044657
:10423C0008462B60FCF788FD431C02D12B6803B1A8
:10424C00236038BDE4030020F8B500BFF8BC08BCFF
:10425C009E467047F8B500BFF8BC08BC9E46704738
:10426C004163747561746F720000000000000000FF
:10427C00000000000102030406070809000000000A
:10428C000102030402030405060708090A0B0C0DBE
:08429C000E0F101001020000DA
:0442A40031010008DC
:0442A8000D010008FC
:1042AC000024F400100000000100000000000000D9
:1042BC0003000000A802002000000000A80200205B
:1042CC001003002078030020000000000000000014
:1042DC0000000000000000000000000000000000D2
:1042EC0000000000000000000000000000000000C2
:1042FC0000000000000000000000000000000000B2
:08430C00000000001800002071
:0400000508000DF1F1
:00000001FF
